{
    "contractName": "Greetings",
    "abi": [
        {
            "inputs": [
                {
                    "internalType": "string",
                    "name": "initialName",
                    "type": "string"
                }
            ],
            "stateMutability": "nonpayable",
            "type": "constructor"
        },
        {
            "inputs": [],
            "name": "getGreetings",
            "outputs": [
                {
                    "internalType": "string",
                    "name": "",
                    "type": "string"
                }
            ],
            "stateMutability": "view",
            "type": "function"
        },
        {
            "inputs": [],
            "name": "greetingsPrefix",
            "outputs": [
                {
                    "internalType": "string",
                    "name": "",
                    "type": "string"
                }
            ],
            "stateMutability": "view",
            "type": "function"
        },
        {
            "inputs": [],
            "name": "name",
            "outputs": [
                {
                    "internalType": "string",
                    "name": "",
                    "type": "string"
                }
            ],
            "stateMutability": "view",
            "type": "function"
        },
        {
            "inputs": [
                {
                    "internalType": "string",
                    "name": "newName",
                    "type": "string"
                }
            ],
            "name": "setName",
            "outputs": [],
            "stateMutability": "nonpayable",
            "type": "function"
        }
    ],
    "bytecode": "60c0604052600760809081526602432b6363790160cd1b60a0526001906100269082610104565b5034801561003357600080fd5b50604051610729380380610729833981016040819052610052916101c3565b600061005e8282610104565b505061028c565b634e487b7160e01b600052604160045260246000fd5b600181811c9082168061008f57607f821691505b6020821081036100af57634e487b7160e01b600052602260045260246000fd5b50919050565b601f8211156100ff57600081815260208120601f850160051c810160208610156100dc5750805b601f850160051c820191505b818110156100fb578281556001016100e8565b5050505b505050565b81516001600160401b0381111561011d5761011d610065565b6101318161012b845461007b565b846100b5565b602080601f831160018114610166576000841561014e5750858301515b600019600386901b1c1916600185901b1785556100fb565b600085815260208120601f198616915b8281101561019557888601518255948401946001909101908401610176565b50858210156101b35787850151600019600388901b60f8161c191681555b5050505050600190811b01905550565b600060208083850312156101d657600080fd5b82516001600160401b03808211156101ed57600080fd5b818501915085601f83011261020157600080fd5b81518181111561021357610213610065565b604051601f8201601f19908116603f0116810190838211818310171561023b5761023b610065565b81604052828152888684870101111561025357600080fd5b600093505b828410156102755784840186015181850187015292850192610258565b600086848301015280965050505050505092915050565b61048e8061029b6000396000f3fe608060405234801561001057600080fd5b506004361061004c5760003560e01c806306fdde0314610051578063850c85f81461006f578063c47f002714610077578063ca4c3a411461008c575b600080fd5b610059610094565b604051610066919061016a565b60405180910390f35b610059610122565b61008a6100853660046101ce565b61012f565b005b61005961013f565b600080546100a19061027f565b80601f01602080910402602001604051908101604052809291908181526020018280546100cd9061027f565b801561011a5780601f106100ef5761010080835404028352916020019161011a565b820191906000526020600020905b8154815290600101906020018083116100fd57829003601f168201915b505050505081565b600180546100a19061027f565b600061013b8282610308565b5050565b60606001600060405160200161015692919061043b565b604051602081830303815290604052905090565b600060208083528351808285015260005b818110156101975785810183015185820160400152820161017b565b506000604082860101526040601f19601f8301168501019250505092915050565b634e487b7160e01b600052604160045260246000fd5b6000602082840312156101e057600080fd5b813567ffffffffffffffff808211156101f857600080fd5b818401915084601f83011261020c57600080fd5b81358181111561021e5761021e6101b8565b604051601f8201601f19908116603f01168101908382118183101715610246576102466101b8565b8160405282815287602084870101111561025f57600080fd5b826020860160208301376000928101602001929092525095945050505050565b600181811c9082168061029357607f821691505b6020821081036102b357634e487b7160e01b600052602260045260246000fd5b50919050565b601f82111561030357600081815260208120601f850160051c810160208610156102e05750805b601f850160051c820191505b818110156102ff578281556001016102ec565b5050505b505050565b815167ffffffffffffffff811115610322576103226101b8565b61033681610330845461027f565b846102b9565b602080601f83116001811461036b57600084156103535750858301515b600019600386901b1c1916600185901b1785556102ff565b600085815260208120601f198616915b8281101561039a5788860151825594840194600190910190840161037b565b50858210156103b85787850151600019600388901b60f8161c191681555b5050505050600190811b01905550565b600081546103d58161027f565b600182811680156103ed576001811461040257610431565b60ff1984168752821515830287019450610431565b8560005260208060002060005b858110156104285781548a82015290840190820161040f565b50505082870194505b5050505092915050565b600061045061044a83866103c8565b846103c8565b94935050505056fea2646970667358221220b0d7f345451ba9d96dfad4089fdf5747373d0a7e1af198f852df0274ffe6823464736f6c63430008130033",
    "sourcePath": "/home/zak/code/Solidity/Solana land/Greetings.sol",
    "compiler": {
        "name": "solc",
        "version": "0.8.19+commit.7dd6d404"
    },
    "functionHashes": {
        "getGreetings()": "ca4c3a41",
        "greetingsPrefix()": "850c85f8",
        "name()": "06fdde03",
        "setName(string)": "c47f0027"
    },
    "gasEstimates": {
        "creation": {
            "codeDepositCost": "233200",
            "executionCost": "infinite",
            "totalCost": "infinite"
        },
        "external": {
            "getGreetings()": "infinite",
            "greetingsPrefix()": "infinite",
            "name()": "infinite",
            "setName(string)": "infinite"
        }
    }
}