{
    "contractName": "SimpleStorage",
    "abi": [
        {
            "inputs": [],
            "name": "getValue",
            "outputs": [
                {
                    "internalType": "uint256",
                    "name": "",
                    "type": "uint256"
                }
            ],
            "stateMutability": "view",
            "type": "function"
        },
        {
            "inputs": [
                {
                    "internalType": "uint256",
                    "name": "value",
                    "type": "uint256"
                }
            ],
            "name": "setValue",
            "outputs": [],
            "stateMutability": "nonpayable",
            "type": "function"
        }
    ],
    "bytecode": "6080604052348015600f57600080fd5b5060ac8061001e6000396000f3fe6080604052348015600f57600080fd5b506004361060325760003560e01c8063209652551460375780635524107714604c575b600080fd5b60005460405190815260200160405180910390f35b605c6057366004605e565b600055565b005b600060208284031215606f57600080fd5b503591905056fea26469706673582212203eae742bd1a89e339a3eb239a0c297f6dfca1da99dfb12c70d0793cb43fddcc964736f6c63430008130033",
    "sourcePath": "/home/zak/code/GitClones/Solana land/Mycontract.sol",
    "compiler": {
        "name": "solc",
        "version": "0.8.19+commit.7dd6d404"
    },
    "functionHashes": {
        "getValue()": "20965255",
        "setValue(uint256)": "55241077"
    },
    "gasEstimates": {
        "creation": {
            "codeDepositCost": "34400",
            "executionCost": "87",
            "totalCost": "34487"
        },
        "external": {
            "getValue()": "2246",
            "setValue(uint256)": "22312"
        }
    }
}